{
  "_format": "hh-sol-artifact-1",
  "contractName": "TransferFund",
  "sourceName": "contracts/TransferFund.sol",
  "abi": [
    {
      "anonymous": false,
      "inputs": [
        {
          "indexed": false,
          "internalType": "address",
          "name": "sender",
          "type": "address"
        },
        {
          "indexed": false,
          "internalType": "address",
          "name": "recipient",
          "type": "address"
        },
        {
          "indexed": false,
          "internalType": "uint256",
          "name": "amount",
          "type": "uint256"
        },
        {
          "indexed": false,
          "internalType": "string",
          "name": "message",
          "type": "string"
        },
        {
          "indexed": false,
          "internalType": "uint256",
          "name": "timestamp",
          "type": "uint256"
        },
        {
          "indexed": false,
          "internalType": "string",
          "name": "keyword",
          "type": "string"
        },
        {
          "indexed": false,
          "internalType": "bytes32",
          "name": "transactionId",
          "type": "bytes32"
        }
      ],
      "name": "Transfer",
      "type": "event"
    },
    {
      "inputs": [
        {
          "internalType": "address payable",
          "name": "receiver",
          "type": "address"
        },
        {
          "internalType": "uint256",
          "name": "amount",
          "type": "uint256"
        },
        {
          "internalType": "string",
          "name": "message",
          "type": "string"
        },
        {
          "internalType": "string",
          "name": "keyword",
          "type": "string"
        }
      ],
      "name": "addToBlockchain",
      "outputs": [],
      "stateMutability": "nonpayable",
      "type": "function"
    },
    {
      "inputs": [],
      "name": "getTransactionCount",
      "outputs": [
        {
          "internalType": "uint256",
          "name": "",
          "type": "uint256"
        }
      ],
      "stateMutability": "view",
      "type": "function"
    },
    {
      "inputs": [],
      "name": "getTransactions",
      "outputs": [
        {
          "components": [
            {
              "internalType": "address",
              "name": "sender",
              "type": "address"
            },
            {
              "internalType": "address",
              "name": "receiver",
              "type": "address"
            },
            {
              "internalType": "uint256",
              "name": "amount",
              "type": "uint256"
            },
            {
              "internalType": "string",
              "name": "message",
              "type": "string"
            },
            {
              "internalType": "uint256",
              "name": "timestamp",
              "type": "uint256"
            },
            {
              "internalType": "string",
              "name": "keyword",
              "type": "string"
            },
            {
              "internalType": "bytes32",
              "name": "transactionId",
              "type": "bytes32"
            }
          ],
          "internalType": "struct TransferFund.TransferStruct[]",
          "name": "",
          "type": "tuple[]"
        }
      ],
      "stateMutability": "view",
      "type": "function"
    }
  ],
  "bytecode": "0x608060405234801561001057600080fd5b506110dc806100206000396000f3fe608060405234801561001057600080fd5b50600436106100415760003560e01c80632e7700f01461004657806383920e9014610064578063cc2d7ead14610082575b600080fd5b61004e61009e565b60405161005b9190610551565b60405180910390f35b61006c6100a7565b60405161007991906107ca565b60405180910390f35b61009c6004803603810190610097919061099f565b6102f4565b005b60008054905090565b60606001805480602002602001604051908101604052809291908181526020016000905b828210156102eb57838290600052602060002090600702016040518060e00160405290816000820160009054906101000a900473ffffffffffffffffffffffffffffffffffffffff1673ffffffffffffffffffffffffffffffffffffffff1673ffffffffffffffffffffffffffffffffffffffff1681526020016001820160009054906101000a900473ffffffffffffffffffffffffffffffffffffffff1673ffffffffffffffffffffffffffffffffffffffff1673ffffffffffffffffffffffffffffffffffffffff168152602001600282015481526020016003820180546101b490610a6d565b80601f01602080910402602001604051908101604052809291908181526020018280546101e090610a6d565b801561022d5780601f106102025761010080835404028352916020019161022d565b820191906000526020600020905b81548152906001019060200180831161021057829003601f168201915b505050505081526020016004820154815260200160058201805461025090610a6d565b80601f016020809104026020016040519081016040528092919081815260200182805461027c90610a6d565b80156102c95780601f1061029e576101008083540402835291602001916102c9565b820191906000526020600020905b8154815290600101906020018083116102ac57829003601f168201915b50505050508152602001600682015481525050815260200190600101906100cb565b50505050905090565b60016000808282546103069190610acd565b925050819055506000600233868686428760405160200161032c96959493929190610bcf565b6040516020818303038152906040526040516103489190610c7e565b602060405180830381855afa158015610365573d6000803e3d6000fd5b5050506040513d601f19601f820116820180604052508101906103889190610cc1565b905060016040518060e001604052803373ffffffffffffffffffffffffffffffffffffffff1681526020018773ffffffffffffffffffffffffffffffffffffffff16815260200186815260200185815260200142815260200184815260200183815250908060018154018082558091505060019003906000526020600020906007020160009091909190915060008201518160000160006101000a81548173ffffffffffffffffffffffffffffffffffffffff021916908373ffffffffffffffffffffffffffffffffffffffff16021790555060208201518160010160006101000a81548173ffffffffffffffffffffffffffffffffffffffff021916908373ffffffffffffffffffffffffffffffffffffffff1602179055506040820151816002015560608201518160030190816104c19190610e9a565b506080820151816004015560a08201518160050190816104e19190610e9a565b5060c0820151816006015550507f7be5f74c5c0d664a080f27052f691ace6986e6459641abe4c1474f1d971f2166338686864287876040516105299796959493929190611029565b60405180910390a15050505050565b6000819050919050565b61054b81610538565b82525050565b60006020820190506105666000830184610542565b92915050565b600081519050919050565b600082825260208201905092915050565b6000819050602082019050919050565b600073ffffffffffffffffffffffffffffffffffffffff82169050919050565b60006105c382610598565b9050919050565b6105d3816105b8565b82525050565b6105e281610538565b82525050565b600081519050919050565b600082825260208201905092915050565b60005b83811015610622578082015181840152602081019050610607565b60008484015250505050565b6000601f19601f8301169050919050565b600061064a826105e8565b61065481856105f3565b9350610664818560208601610604565b61066d8161062e565b840191505092915050565b6000819050919050565b61068b81610678565b82525050565b600060e0830160008301516106a960008601826105ca565b5060208301516106bc60208601826105ca565b5060408301516106cf60408601826105d9565b50606083015184820360608601526106e7828261063f565b91505060808301516106fc60808601826105d9565b5060a083015184820360a0860152610714828261063f565b91505060c083015161072960c0860182610682565b508091505092915050565b60006107408383610691565b905092915050565b6000602082019050919050565b60006107608261056c565b61076a8185610577565b93508360208202850161077c85610588565b8060005b858110156107b857848403895281516107998582610734565b94506107a483610748565b925060208a01995050600181019050610780565b50829750879550505050505092915050565b600060208201905081810360008301526107e48184610755565b905092915050565b6000604051905090565b600080fd5b600080fd5b600061080b82610598565b9050919050565b61081b81610800565b811461082657600080fd5b50565b60008135905061083881610812565b92915050565b61084781610538565b811461085257600080fd5b50565b6000813590506108648161083e565b92915050565b600080fd5b600080fd5b7f4e487b7100000000000000000000000000000000000000000000000000000000600052604160045260246000fd5b6108ac8261062e565b810181811067ffffffffffffffff821117156108cb576108ca610874565b5b80604052505050565b60006108de6107ec565b90506108ea82826108a3565b919050565b600067ffffffffffffffff82111561090a57610909610874565b5b6109138261062e565b9050602081019050919050565b82818337600083830152505050565b600061094261093d846108ef565b6108d4565b90508281526020810184848401111561095e5761095d61086f565b5b610969848285610920565b509392505050565b600082601f8301126109865761098561086a565b5b813561099684826020860161092f565b91505092915050565b600080600080608085870312156109b9576109b86107f6565b5b60006109c787828801610829565b94505060206109d887828801610855565b935050604085013567ffffffffffffffff8111156109f9576109f86107fb565b5b610a0587828801610971565b925050606085013567ffffffffffffffff811115610a2657610a256107fb565b5b610a3287828801610971565b91505092959194509250565b7f4e487b7100000000000000000000000000000000000000000000000000000000600052602260045260246000fd5b60006002820490506001821680610a8557607f821691505b602082108103610a9857610a97610a3e565b5b50919050565b7f4e487b7100000000000000000000000000000000000000000000000000000000600052601160045260246000fd5b6000610ad882610538565b9150610ae383610538565b9250828201905080821115610afb57610afa610a9e565b5b92915050565b60008160601b9050919050565b6000610b1982610b01565b9050919050565b6000610b2b82610b0e565b9050919050565b610b43610b3e826105b8565b610b20565b82525050565b6000610b5482610b0e565b9050919050565b610b6c610b6782610800565b610b49565b82525050565b6000819050919050565b610b8d610b8882610538565b610b72565b82525050565b600081905092915050565b6000610ba9826105e8565b610bb38185610b93565b9350610bc3818560208601610604565b80840191505092915050565b6000610bdb8289610b32565b601482019150610beb8288610b5b565b601482019150610bfb8287610b7c565b602082019150610c0b8286610b9e565b9150610c178285610b7c565b602082019150610c278284610b9e565b9150819050979650505050505050565b600081519050919050565b600081905092915050565b6000610c5882610c37565b610c628185610c42565b9350610c72818560208601610604565b80840191505092915050565b6000610c8a8284610c4d565b915081905092915050565b610c9e81610678565b8114610ca957600080fd5b50565b600081519050610cbb81610c95565b92915050565b600060208284031215610cd757610cd66107f6565b5b6000610ce584828501610cac565b91505092915050565b60008190508160005260206000209050919050565b60006020601f8301049050919050565b600082821b905092915050565b600060088302610d507fffffffffffffffffffffffffffffffffffffffffffffffffffffffffffffffff82610d13565b610d5a8683610d13565b95508019841693508086168417925050509392505050565b6000819050919050565b6000610d97610d92610d8d84610538565b610d72565b610538565b9050919050565b6000819050919050565b610db183610d7c565b610dc5610dbd82610d9e565b848454610d20565b825550505050565b600090565b610dda610dcd565b610de5818484610da8565b505050565b5b81811015610e0957610dfe600082610dd2565b600181019050610deb565b5050565b601f821115610e4e57610e1f81610cee565b610e2884610d03565b81016020851015610e37578190505b610e4b610e4385610d03565b830182610dea565b50505b505050565b600082821c905092915050565b6000610e7160001984600802610e53565b1980831691505092915050565b6000610e8a8383610e60565b9150826002028217905092915050565b610ea3826105e8565b67ffffffffffffffff811115610ebc57610ebb610874565b5b610ec68254610a6d565b610ed1828285610e0d565b600060209050601f831160018114610f045760008415610ef2578287015190505b610efc8582610e7e565b865550610f64565b601f198416610f1286610cee565b60005b82811015610f3a57848901518255600182019150602085019450602081019050610f15565b86831015610f575784890151610f53601f891682610e60565b8355505b6001600288020188555050505b505050505050565b610f75816105b8565b82525050565b6000610f96610f91610f8c84610598565b610d72565b610598565b9050919050565b6000610fa882610f7b565b9050919050565b6000610fba82610f9d565b9050919050565b610fca81610faf565b82525050565b600082825260208201905092915050565b6000610fec826105e8565b610ff68185610fd0565b9350611006818560208601610604565b61100f8161062e565b840191505092915050565b61102381610678565b82525050565b600060e08201905061103e600083018a610f6c565b61104b6020830189610fc1565b6110586040830188610542565b818103606083015261106a8187610fe1565b90506110796080830186610542565b81810360a083015261108b8185610fe1565b905061109a60c083018461101a565b9897505050505050505056fea2646970667358221220a84d285e9150923495a43c3ce889ebfde67b8edcaddafe81c8bd5e00de59be8f64736f6c63430008130033",
  "linkReferences": {},
  "deployedLinkReferences": {}
}